S01700004763634170706C69636174696F6E322E737265635A
S113000012C021C020C01FC01EC01DC01CC01BC008
S11300101AC019C018C017C016C015C023C013C019
S113002012C011C010C011241FBECFE5D4E0DEBF42
S1130030CDBF21E0A0E6B0E001C01D92AC32B20712
S1130040E1F70CD01AC1DCCF8FEF87BB14BA089547
S113005080E687B9389A8BEE86B90895F5DFF8DF24
S11300607894FFCF1F920F920FB60F921124CF9264
S1130070DF92EF92FF922F933F934F935F936F938F
S11300807F938F939F93AF93BF93EF93FF9385B128
S113009088BB85B182BB20912C0130E01216130677
S11300A034F480E090E0019682179307E1F7C09062
S11300B06000D0906100E0906200F090630020E066
S11300C030E0A901C701B601D4D0181664F420E0C9
S11300D030E040E751E4C701B601A3D088231CF403
S11300E081E088BB89C020E030E040E751E4C701EB
S11300F0B601BFD0882364F020E030E040EF51E443
S1130100C701B6018ED088231CF483E088BB74C079
S113011020E030E040EF51E4C701B601AAD08823C3
S113012064F020E030E044E352E4C701B60179D042
S113013088231CF487E088BB5FC020E030E044E300
S113014052E4C701B60195D0882364F020E030E082
S113015040E752E4C701B60164D088231CF48FE061
S113016088BB4AC020E030E040E752E4C701B60152
S113017080D0882364F020E030E046E952E4C701EF
S1130180B6014FD088231CF48FE188BB35C020E032
S113019030E046E952E4C701B6016BD0882364F02D
S11301A020E030E044EB52E4C701B6013AD08823A2
S11301B01CF48FE388BB20C020E030E044EB52E421
S11301C0C701B60156D0882364F020E030E042ED48
S11301D052E4C701B60125D088231CF48FE788BBFD
S11301E00BC020E030E042ED52E4C701B60141D03B
S11301F0882314F08FEF88BBFF91EF91BF91AF91EB
S11302009F918F917F916F915F914F913F912F912A
S1130210FF90EF90DF90CF900F900FBE0F901F9044
S1130220189503D008F481E00895990F0008550F3C
S1130230AA0BE0E8FEEF16161706E807F907C0F068
S113024012161306E407F50798F0621B730B840B70
S1130250950B39F40A2661F0232B242B252B21F44A
S113026008950A2609F4A140A6958FEF811D811DEA
S11102700895DBDF08F48FEF0895F894FFCFB4
S9030000FC
