S01900004763634170706C69636174696F6E312D322E73726563FA
S113000012C02CC02BC02AC029C028C045C026C09D
S113001025C024C023C022C021C020C08FC01EC060
S11300201DC01CC01BC011241FBECFE5D4E0DEBF21
S1130030CDBF10E0A0E6B0E0E6E6F6E002C0059031
S11300400D92A236B107D9F721E0A2E6B0E001C0D3
S11300501D92AE32B207E1F71AD003C3D1CF8FEFAE
S113006087BB81BB14BA089580E687B9389A8BEEB2
S113007086B908958DE08EBD8FE790E09BBD8ABD63
S113008084E89EE19BBD8ABD80E189BF0895E7DFD6
S1130090EBDFF0DF7894FFCF1F920F920FB60F9231
S11300A011242F933F934F935F936F937F938F9379
S11300B09F93AF93BF93EF93FF932091660030E03B
S11300C060912E016623D1F0E6E6F0E070E06A5913
S11300D07F4FA901DF01808190E0281739072CF0B8
S11300E0841795071CF4AC0101C09C01C901841B51
S11300F0950B8C933196E617F70761F7369A809142
S113010060009091610025B1FC01EA59FF4F208302
S113011001969093610080936000FF91EF91BF91ED
S1130120AF919F918F917F916F915F914F913F918B
S11301302F910F900FBE0F901F9018951F920F9242
S11301400FB60F921124CF92DF92EF92FF922F936A
S11301503F934F935F936F937F938F939F93AF934B
S1130160BF93EF93FF9365B170E080E090E0C5D159
S113017029EB3DEC48E652E4EED02CEE31E548E2C2
S113018050E451D16B017C01609362007093630071
S1130190809364009093650020E030E0A9015DD273
S11301A0181664F420E030E040E751E4C701B601DA
S11301B036D188231CF481E088BBB7C020E030E04E
S11301C040E751E4C701B60148D2882364F020E037
S11301D030E040EF51E4C701B60121D188231CF47B
S11301E083E088BBA2C020E030E040EF51E4C701C7
S11301F0B60133D2882364F020E030E044E352E4D3
S1130200C701B6010CD188231CF487E088BB8DC0DC
S113021020E030E044E352E4C701B6011ED2882353
S113022064F020E030E040E752E4C701B601F7D0C3
S113023088231CF48FE088BB78C020E030E040E7DE
S113024052E4C701B60109D2882364F020E030E00B
S113025046E952E4C701B601E2D088231CF48FE1D9
S113026088BB63C020E030E046E952E4C701B60130
S1130270F4D1882364F020E030E044EB52E4C70179
S1130280B601CDD088231CF48FE388BB4EC020E098
S113029030E044EB52E4C701B601DFD1882364F0B7
S11302A020E030E042ED52E4C701B601B8D0882323
S11302B01CF48FE788BB39C020E030E042ED52E403
S11302C0C701B601CAD1882364F020E030E040EFD2
S11302D052E4C701B601A3D088231CF48FEF88BB76
S11302E024C020E030E040EF52E4C701B601B5D1AC
S11302F0882374F020E030E047E053E4C701B601FE
S11303008ED088232CF48FEF88BB80E288BB0DC08D
S113031020E030E047E053E4C701B6019ED18823D2
S113032024F08FEF88BB80E388BBFF91EF91BF91EE
S1130330AF919F918F917F916F915F914F913F9179
S11303402F91FF90EF90DF90CF900F900FBE0F9002
S11303501F9018955058BB27AA270ED044C135D1F9
S113036030F03AD120F031F49F3F11F41EF42AC149
S11303700EF4E095E7FB20C1E92F46D180F3BA17CC
S1130380620773078407950718F071F49EF55EC140
S11303900EF4E0950B2EBA2FA02D0B01B90190019C
S11303A00C01CA01A0011124FF27591B99F0593FE0
S11303B050F4503E68F11A16F040A22F232F342F28
S11303C04427585FF3CF469537952795A795F04076
S11303D05395C9F77EF41F16BA0B620B730B840B8B
S11303E0BAF09150A1F0FF0FBB1F661F771F881F43
S11303F0C2F70EC0BA0F621F731F841F48F487959B
S113040077956795B795F7959E3F08F0B3CF939589
S1130410880F08F09927EE0F979587950895A8D02F
S113042008F481E008950CD0DEC0D6D040F0CDD0E1
S113043030F021F45F3F19F0BFC0511108C1C2C0B0
S1130440E3D098F39923C9F35523B1F3951B550BC6
S1130450BB27AA2762177307840738F09F5F5F4F93
S1130460220F331F441FAA1FA9F333D00E2E3AF0D4
S1130470E0E830D091505040E695001CCAF729D0EE
S1130480FE2F27D0660F771F881FBB1F261737073D
S11304904807AB07B0E809F0BB0B802DBF01FF276D
S11304A093585F4F2AF09E3F510568F085C0CFC036
S11304B05F3FECF3983EDCF3869577956795B795A7
S11304C0F7959F5FC9F7880F911D9695879597F9C2
S11304D00895E1E0660F771F881FBB1F621773073B
S11304E08407BA0720F0621B730B840BBA0BEE1F50
S11304F088F7E0950895E89409C097FB3EF4909539
S11305008095709561957F4F8F4F9F4F9923A9F0E8
S1130510F92F96E9BB279395F69587957795679577
S1130520B795F111F8CFFAF4BB0F11F460FF1BC0BB
S11305306F5F7F4F8F4F9F4F16C0882311F096E94E
S113054011C0772321F09EE8872F762F05C06623FC
S113055071F096E8862F70E060E02AF09A95660FB5
S1130560771F881FDAF7880F9695879597F908956E
S1130570990F0008550FAA0BE0E8FEEF16161706B0
S1130580E807F907C0F012161306E407F50798F018
S1130590621B730B840B950B39F40A2661F0232B31
S11305A0242B252B21F408950A2609F4A140A695AD
S11305B08FEF811D811D089597F99F6780E870E092
S11305C060E008959FEF80EC089500240A941616C5
S11305D0170618060906089500240A94121613062D
S11305E0140605060895092E0394000C11F48823BB
S11305F052F0BB0F40F4BF2B11F460FF04C06F5FD7
S11306007F4F8F4F9F4F089557FD9058440F551FAC
S113061059F05F3F71F04795880F97FB991F61F080
S11306209F3F79F087950895121613061406551FF7
S1130630F2CF4695F1DF08C0161617061806991F63
S1130640F1CF86957105610508940895E894BB2758
S113065066277727CB0197F908958ADF08F48FEF8F
S10906600895F894FFCF99
S105066601008D
S9030000FC
